:1000000034C100004EC100004CC100004AC10000D4
:1000100048C1000046C1000044C1000042C10000C8
:1000200040C1000083C300000C9422123AC10000BA
:1000300038C1000036C1000034C1000032C10000E8
:1000400030C100000C9467082CC100002AC10000D8
:1000500055C30000B8C1000024C1000022C1000047
:1000600020C100001EC100001CC100001AC1000018
:1000700018C1000016C1000014C1000012C1000028
:1000800010C100000EC100000CC100000AC1000038
:1000900008C1000006C1000004C1000002C1000048
:1000A00000C10000FEC00000FCC0000012011001F1
:1000B000FF000010EB03042100020102030109020A
:1000C0002000010100C0320904000002FF0000000E
:1000D0000705820240000A0705020240000A0403E5
:1000E00009040C03410054004D0045004C00000081
:1000F00018034100560052004900530050002000F0
:100100006D006B004900490000001C033000300006
:100110003000320030003000300031003200330057
:10012000340035000000000009000A000A000B003E
:100130000C000D000D000E000F001000100012004A
:1001400013001300140016001600180019001A00FE
:100150001C001D001F002000220023002500270096
:1001600029002B002E0030003200340037003A0006
:100170003D004000430046004A004E00520055003A
:100180005A005E00630068006D00730078007E0016
:1001900084008B0091009900A000A900B100B90073
:1001A000C300CC00D600E100EC00F700040111010F
:1001B0001E012D013B014B015B016C017D01910191
:1001C000A501BA01CF01E601FE01160231024C027F
:1001D0006A028802A802CA02ED0211033803600312
:1001E0008B03B803E70318044B048104B904F50436
:1001F00034057505B90501064E069D06EF0648074C
:10020000A30704086508D0084009B6092B0AAB0A01
:10021000300BC30B510CEE0C8F0D400EF60EAF0FD2
:10022000681047111412F512ED13E214F015F916C7
:100230001B185C19911AE51B251D831E0320AB2199
:10024000302332250F27F128F82A1A2D492FA13102
:100250001434A1364539173C1A3F34426045DF4813
:10026000704C400041014243030011241FBECFEFF8
:10027000DAE0DEBFCDBF11E0A0E0B1E0EEE3F8E2EE
:1002800002C005900D92A234B107D9F711E0A2E4A3
:10029000B1E001C01D92A835B107E1F756D00C942A
:1002A0001D14AECE25B1982F9170909521609223A8
:1002B00095B92BB1982F90729095206292239BB99B
:1002C00098B180749F7B982B98B9089581E2EACF0A
:1002D00081E0E8CF43C008958EB3843069F4BAD189
:1002E00082E08093E9008091E80082FF05C081E20E
:1002F000D9DF7ED080E2D6CF089582E060E842E385
:100300000E94621180FD02C081E001C080E2CACF7C
:1003100084B7877F84BF88E10FB6F894809360002C
:10032000109260000FBE80E090E020E80FB6F894D5
:1003300020936100809361000FBE209A289A559AFD
:100340005D9A3E9A46980C940512E2DF7BD181E0DB
:10035000A9DF7894C1DF0E94EF13FCCFDA0192305D
:1003600049F0933061F0913031F5ECEAF0E022E1B0
:1003700030E025C0EEEBF0E020E230E020C081303C
:1003800059F0813028F0823059F08330A1F40EC04A
:10039000EEEDF0E0849107C0E2EEF0E0849103C05E
:1003A000E0EFF0E08491282F30E009C0EAE0F1E0CE
:1003B0002CE130E004C0E0E0F0E020E030E0ED933C
:1003C000FC93C901089578941F920F920FB60F9273
:1003D00011248F938AB5882321F08AB581508ABD74
:1003E00001C015BC8F910F900FBE0F901F901895F4
:1003F000FF920F931F93CF93DF931091F10084E648
:100400008ABD85E085BD143109F4CEC0153128F5CB
:10041000163009F48AC0173068F4143038F41230FA
:1004200008F057C0113009F0D9C036C0153009F0B6
:10043000D5C0BFC0113109F4B2C0123138F41A303E
:1004400009F499C0103109F0C9C0A7C0123109F4EC
:10045000AEC0133109F0C2C0A4C0193109F4AEC056
:100460001A3168F4163109F49FC0163108F499C0A6
:10047000173109F4A3C0183109F0B0C09CC01D3178
:1004800009F49FC01D3108F496C0103509F49DC0D1
:10049000113509F0A3C097C08091E8008B77809355
:1004A000E80082E08093E9008091EC008160809315
:1004B000EC001093F1001092F1008AE08093F100BB
:1004C00080E091E06AE070E040E050E00E941011AE
:1004D000A3C00091F100123011F0FF2402C0F0908F
:1004E000F1008091E8008B778093E80082E08093B0
:1004F000E9008091EC0081608093EC001093F100A2
:10050000802FC1D0123041F481FF0DC01092F10054
:10051000802F6F2DC0D080C080FF05C01092F100E9
:10052000802FA9D077C080EC75C08AE491E064E0A8
:1005300070E040E050E00E946C108091E8008B7702
:100540008093E80082E08093E9008091EC00816074
:100550008093EC0080914A0190914B01A0914C0155
:10056000B0914D01B7FF03C081E08093490186E05F
:100570008093F1000FC08091E8008B778093E800B2
:1005800082E08093E9008091EC0081608093EC0030
:100590001093F1001092F1003FC0FDD442C0C7D4C7
:1005A00040C0812F94D33DC0812FE3D23AC092D274
:1005B00038C0CDD036C0812F85D133C0812F3CD1FA
:1005C00030C0EBD12EC0C2D62CC0F9D72AC0809142
:1005D000E8008B778093E8000E9495112091F3004A
:1005E0008091F200D22FC0E090E08C2B9D2B8034C4
:1005F000910569F38091E8008B778093E80082E0B1
:100600008093E9008091EC0081608093EC0010936E
:10061000F10089EC8093F1008091E8008E7780935F
:10062000E80015BC0E94951182E08093E90080915A
:10063000EC008E7F8093EC00DF91CF911F910F91A2
:10064000FF9008958BE987BD82E084BD80936E00A2
:100650003AD06DC50895982FEBE0F1E080819817AE
:1006600041F081E0E632F80711F03396F7CFE0E091
:10067000F0E0CF010895EFDFFC01009711F480E076
:10068000089582810895E7DFFC01009711F480E06E
:100690000895818108950F931F93182F062FDBDF94
:1006A000FC01009769F002831E3919F480E090E0A4
:1006B00004C0183929F481E090E0602F0E940B14E7
:1006C0001F910F9108950F931F9380E090E00E9477
:1006D0000314182F81E090E00E940314082F1F3F9D
:1006E00021F08EE9B8DFFC0112830F3F21F088E989
:1006F000B2DFFC0102831F910F9108951F920F92A8
:100700000FB60F9211248F939F931A9A80914201F2
:1007100090914301019790934301809342019F91EF
:100720008F910F900FBE0F901F9018951F920F92F0
:100730000FB60F9211248F938091440181508093C2
:1007400044018F910F900FBE0F901F9018958091CC
:10075000E8008B778093E80082E08093E900809145
:10076000EC0081608093EC0087EF84B985B18861EB
:1007700085B928E020936B0083EF90E09093890087
:100780008093880083E08093800089E180938100DA
:10079000109285001092840082E398E090934301C8
:1007A000809342012093440180916800816080938E
:1007B000680081E080936F002FB7789480914201A8
:1007C00090914301892B21F0809144018823B1F756
:1007D000809168008E7F8093680010926F002FBF19
:1007E00080914401882311F090E801C090E085E0F9
:1007F0008093F1009093F1008091E8008E778093D0
:10080000E8000895282F40EA5FE003C0CA0101977D
:10081000F1F7222321F08AB521508823B9F70895F2
:10082000982F80912901882329F09EBD0DB407FEE1
:10083000FDCF0895892FBBC4DF92EF92FF920F93F3
:100840001F93DF93CF9300D000D0CDB7DEB7D82E63
:100850008E010F5F1F4FC80164E070E040E050E080
:100860000E94BE108091E8008B778093E80082E0C0
:100870008093E9008091EC0081608093EC0085E03A
:10088000E82EF12CEC0EFD1EF80181918F01C8DFDE
:100890000E151F05C9F7D092F1001092F1001092C9
:1008A000F1008091E8008E778093E8000F900F9020
:1008B0000F900F90CF91DF911F910F91FF90EF90CC
:1008C000DF900895BF92CF92DF92EF92FF920F9345
:1008D0001F93DF93CF93CDB7DEB729970FB6F89468
:1008E000DEBF0FBECDBFB82ECE01059665E070E02D
:1008F00040E050E00E94BE108091E8008B7780932A
:10090000E80082E08093E9008091EC0081608093B0
:10091000EC008E010A5F1F4F7E010894E11CF11C60
:100920009AE0C92ED12CCC0EDD1EF8019081809169
:100930002901882331F09EBD0DB407FEFDCF8EB591
:1009400002C0892F34D4F70181937F010F5F1F4FBD
:100950000C151D0551F7B092F1001092F1008D8138
:10096000FE01E80FF11D80818093F1001092F100EB
:100970008091E8008E778093E80029960FB6F8946E
:10098000DEBF0FBECDBFCF91DF911F910F91FF90C2
:10099000EF90DF90CF90BF900895EF92FF920F936A
:1009A0001F93DF93CF93CDB7DEB7C250D1400FB6C0
:1009B000F894DEBF0FBECDBFCE01019663E070E0BC
:1009C00040E050E00E94BE1034E0E32EF12CEC0E2B
:1009D000FD1E6981C70170E040E050E00E94BE103A
:1009E0008091E8008B778093E80082E08093E900B3
:1009F0008091EC0081608093EC008DE18093F100A8
:100A00001092F10000E00BC08981081728F4F7016B
:100A1000E00FF11D808101C080E002DF0F5F8B815C
:100A2000081790F310E024E0E22EF12CEC0EFD1EEE
:100A30002CC0898190912901081778F4F701E00F03
:100A4000F11D8081992331F08EBD0DB407FEFDCFDD
:100A50008EB501C0ACD30F5F0AC0992331F01EBC24
:100A60000DB407FEFDCF8EB502C080E0A0D3809309
:100A7000F1008091E80085FD07C08091E8008E7745
:100A80008093E8000E9495111F5F8A81181788F2F1
:100A90001092F1009091E8008091E8008E778093A9
:100AA000E80095FD09C00E9495118091E8008E77BD
:100AB0008093E8000E949511CE5FDE4F0FB6F89448
:100AC000DEBF0FBECDBFCF91DF911F910F91FF9081
:100AD000EF900895EF92FF920F931F93DF93CF93C0
:100AE00000D000D000D0CDB7DEB7CE01019666E0D1
:100AF00070E040E050E00E94BE108091E8008B77EB
:100B00008093E80082E08093E9008091EC008160AE
:100B10008093EC008E010D5F1F4F47E0E42EF12C17
:100B2000EC0EFD1EF80181918F017ADE0E151F0576
:100B3000C9F78A81882321F4898164DE90E002C0AC
:100B400061D3982F82E18093F1009093F10080911E
:100B5000E8008E778093E80026960FB6F894DEBF03
:100B60000FBECDBFCF91DF911F910F91FF90EF90FE
:100B70000895DF92EF92FF920F931F93DF93CF932D
:100B800000D00F92CDB7DEB7F82ECE01019663E00C
:100B900070E040E050E00E94BE1099818A81898314
:100BA0009A838091E8008B778093E80082E08093BD
:100BB000E9008091EC0081608093EC00F092F100FC
:100BC0001092F10000E010E068E0D62EEE24E394ED
:100BD00059C080914901882319F032D310924901FC
:100BE0008B811EDE80914A0190914B01A0914C01B6
:100BF000B0914D01892F9A2FAB2FBB2711DE809129
:100C00004A010EDE80912901882331F01EBC0DB40B
:100C100007FEFDCF8EB502C080E0C9D28093F100FF
:100C20008091E80085FD07C08091E8008E77809371
:100C3000E8000E94951124E1F21619F48B818D25AC
:100C40008B8300FD03C086E1F816D1F480914A0140
:100C500090914B01A0914C01B0914D010196A11DC5
:100C6000B11D80934A0190934B01A0934C01B09326
:100C70004D0126E1F21621F0892B11F4E092490191
:100C80000F5F1F4F89819A810817190708F4A1CFB8
:100C90001092F1009091E8008091E8008E778093A7
:100CA000E80095FD09C00E9495118091E8008E77BB
:100CB0008093E8000E9495110F900F900F90CF91B4
:100CC000DF911F910F91FF90EF90DF9008954F9269
:100CD0005F926F927F928F929F92AF92BF92CF92CC
:100CE000DF92EF92FF920F931F93DF93CF93CDB7D5
:100CF000DEB7C950D1400FB6F894DEBF0FBECDBFEE
:100D0000182FCE01019669E070E040E050E00E94AB
:100D1000BE106A81798181E06130780798F0809116
:100D2000E8008B778093E80082E08093E90080916F
:100D3000EC0081608093EC001093F10080EC8093D4
:100D4000F100D8C07A836983CE010A9640E050E072
:100D50000E94BE1089819A810A968F739070892BA8
:100D600039F48091E8008B778093E8000E94951118
:100D70008091E8008B778093E80082E08093E9001F
:100D80008091EC0081608093EC00133111F4888431
:100D900001C0898460904A0170904B01EE24FF24C9
:100DA000FAE0AF2EB12CAC0EBD1ECC24DD24E8E061
:100DB0004E2E552453946DC0F50190800B81809187
:100DC0004901882319F03CD2109249018D8128DD18
:100DD00080914A0190914B01A0914C01B0914D013D
:100DE000892F9A2FAB2FBB271BDD80914A0118DD7D
:100DF000892D16DD133119F48D8184258D83E1143D
:100E0000F10481F4981471F0C0FE05C0133119F497
:100E10008F81886002C08F81877F8F83E0904A0135
:100E2000F0904B0100FD12C0E114F10421F403FD28
:100E300002C0097F0260802FB701482D2C810F81ED
:100E400008D2282F882361F5EE24FF24C0FC02C0BD
:100E50001531C9F480914A0190914B01A0914C0148
:100E6000B0914D010196A11DB11D80934A0190934F
:100E70004B01A0934C01B0934D01133121F4892B08
:100E800011F4509249010894A11CB11C0894C11C92
:100E9000D11C89819A81C816D90608F48DCF20E02B
:100EA0008B8187FF23C08E81BBDC872DB9DC862D2B
:100EB000B7DC80E0B5DC8B8185FF06C0E114F1046E
:100EC00019F48F7C80618B838B81B701482D2C8135
:100ED0000F81BFD1282F133149F480914A0190919D
:100EE0004B01892B19F481E0809349011093F100A3
:100EF0002093F1008091E8008E778093E800C75F2F
:100F0000DE4F0FB6F894DEBF0FBECDBFCF91DF919D
:100F10001F910F91FF90EF90DF90CF90BF90AF9017
:100F20009F908F907F906F905F904F9008950F9358
:100F30001F93DF93CF9300D0CDB7DEB7CE010196DC
:100F400062E070E040E050E00E94BE1008EE10E069
:100F5000F80180818B77808382E08093E900ECEE5A
:100F6000F0E080818160808389814CDC80E0B8D1B1
:100F7000F2D08A8147DCE1EFF0E081E180831082EA
:100F8000F80180818E7780830F900F90CF91DF9151
:100F90001F910F9108958F929F92AF92BF92CF921F
:100FA000DF92EF92FF920F931F93DF93CF93CDB712
:100FB000DEB72F970FB6F894DEBF0FBECDBFCE01C0
:100FC00005966BE070E040E050E00E94BE1080911A
:100FD000E8008B778093E80082E08093E9008091BD
:100FE000EC0081608093EC0010924A0110924B015A
:100FF00010924C0110924D018F8104DC7DD181E073
:101000006FD18E81FFDBBCE08B2E912C8C0E9D1E50
:101010005E010894A11CB11CA0E1CA2ED12CCC0EFB
:10102000DD1E2AC08985EEDBF801908180912901BF
:10103000882331F09EBD0DB407FEFDCF8EB502C0F2
:10104000892FB5D0F70181937F010F5F1F4F0C15DA
:101050001D0541F78B858823D1F0FE01E80FF11DB6
:1010600090818A85981799F080E03AD18E81CADB09
:1010700081E036D18E81C6DB9885992351F08AB5FF
:10108000882339F09150988784017501CBCF90E087
:1010900001C090EC80E18093F1009093F100809189
:1010A000E8008E778093E8002F960FB6F894DEBFA5
:1010B0000FBECDBFCF91DF911F910F91FF90EF90A9
:1010C000DF90CF90BF90AF909F908F9008951F9228
:1010D0000F920FB60F9211248F93199908C0809127
:1010E000450187FF02C02A9A1BC02A9819C0809127
:1010F0004501880F8093450180914601815080937E
:10110000460180914601882321F41092810082E0FB
:1011100086BB1B9B05C08091450181608093450182
:10112000199A8F910F900FBE0F901F901895259AC6
:1011300010926F00109285001092840081E090E080
:10114000909389008093880080E48093800089E0F8
:1011500080938100089580912901882349F084B10A
:10116000897F84B985B1867F85B91CBC1DBC089573
:1011700084B1897F84B985B1867F85B9D8CF92E063
:1011800090936F001092850010928400E82FF0E099
:10119000EE0FFF1FE65EFE4F8591949190938900BC
:1011A00080938800109280001092810008958093AF
:1011B000450188E0809346018091450187FF02C088
:1011C0002A9A01C02A9810928500109284008AE021
:1011D0008093810080914601882319F08AB5882385
:1011E000C9F710928100809145010895982F809150
:1011F0002901882329F09EBD0DB407FEFDCF089577
:10120000892FD5CF80EFF2DF80E0F0DF80E0EEDFE6
:1012100080912901882331F01EBC0DB407FEFDCF5B
:101220008EB502C080E0C3DF80FF03C08AB588238B
:1012300049F78AB5882311F481E8089580E008957C
:101240008DE4D4DF80E0D2DF80914C01CFDF80E0FD
:10125000CDCFEF92FF920F931F937B01142F90E05D
:101260008E778830910581F18930910534F4823090
:10127000910559F0049759F50BC08032910541F062
:101280008034910509F1409711F5822FBBDA1FC018
:10129000802FACDF8F2DAADF8E2DA8DF8091290152
:1012A000882331F01EBC0DB407FEFDCF8EB502C001
:1012B00080E07DDF811719F48AB5882349F78AB564
:1012C000882329F490E804C09DDF982F01C090E0A6
:1012D00084E68ABD892F1F910F91FF90EF900895AA
:1012E000882339F0269A8EE9C6D9882319F42E9AD4
:1012F000089526982E98089588E9BDD9E82F87305B
:10130000D8F481E080932901F0E0EE59FD4FE4919B
:10131000E061209A289A84B1866084B923982B9A38
:10132000E6FF03C08DB5816002C08DB58E7F8DBD97
:101330002098E064ECBD08951092290184B1866084
:1013400084B985B1896085B98E2F19CFDF93CF938A
:101350000F92CDB7DEB7CE01019661E070E040E0BC
:1013600050E00CD78091E8008B778093E80082E012
:101370008093E9008091EC0081608093EC0099817A
:101380009093470181E58093F100913011F480EC56
:1013900001C080E08093F1008091E8008E77809317
:1013A000E8000F90CF91DF910895AF92BF92CF9256
:1013B000DF92EF92FF920F931F93DF93CF93CDB7FE
:1013C000DEB7C850D1400FB6F894DEBF0FBECDBF18
:1013D000CE01019668E070E040E050E0CFD63B815E
:1013E0002C819D818E817F8168856F8378878B8337
:1013F0009C832D833E83CE01099640E050E0BED60B
:101400008F81988509968F739070892B31F4809124
:10141000E8008B778093E80088D78091E8008B778D
:101420008093E80082E08093E9008091EC00816085
:101430008093EC0080914701882379F5898183307E
:10144000A9F0843028F4813069F08230A9F40CC00E
:10145000853031F0853008F44CC0863069F40AC01C
:1014600088E048C044E209C04CE207C045E383E39A
:1014700066E305C04AE101C04EE283E266E2EB802A
:10148000FC800D811E81AF80B8842A8199E0C92E2D
:10149000D12CCC0EDD1EF2D208C04F8158858B8135
:1014A0009C81BE01675F7F4FFCD4882311F090E0E0
:1014B00001C093E080E58093F10084E08093F10027
:1014C0009093F1008091E8008E778093E800C85FE8
:1014D000DE4F0FB6F894DEBF0FBECDBFCF91DF91C8
:1014E0001F910F91FF90EF90DF90CF90BF90AF9042
:1014F00008958CE44B815C816D817E81298525D3A3
:10150000D4CFDF93CF93CDB7DEB7C750D1400FB65E
:10151000F894DEBF0FBECDBFCE01019667E070E04C
:1015200040E050E02BD69A81EB817C816D816A830B
:101530007B83EC839D833E812F812E833F8380912B
:10154000E8008B778093E80082E08093E900809147
:10155000EC0081608093EC0080914701AE01485F10
:101560005F4F882319F48E2F12D304C0CB01BA0128
:10157000A901CFD4882311F493E001C090E080E565
:101580008093F10085E08093F1009093F10099231E
:1015900039F46E817F81CE01089640E050E040D65C
:1015A0008091E8008E778093E800C95FDE4F0FB628
:1015B000F894DEBF0FBECDBFCF91DF910895DF93CA
:1015C000CF93CDB7DEB729970FB6F894DEBF0FBE25
:1015D000CDBF9091F100943009F4ADC0953048F43E
:1015E0009230A1F1933008F04DC0913009F03DC127
:1015F0000AC0963009F4A3C0963008F49EC0973014
:1016000009F033C1DEC08091E8008B778093E80059
:1016100082E08093E9008091EC0081608093EC008F
:1016200080914701882311F4B5D305C0823011F0B1
:1016300090E002C0AED4982F80E58093F10081E065
:101640008093F10089278093F1000AC18091E8001E
:101650008B778093E8009093E9008091EC008160A3
:101660008093EC0080914701882311F488D301C056
:1016700085D480E58093F10082E08093F1001092A0
:10168000F100EEC0CE01059665E070E040E050E06C
:1016900075D5588549857E816F814E835F836887C4
:1016A00079878091E8008B778093E80082E08093CF
:1016B000E9008091EC0081608093EC00809147010B
:1016C0009D81882339F59430C1F0953038F49230FB
:1016D00071F0933080F49130D1F40BC0963089F0E2
:1016E000963068F0973079F0983089F40EC080E237
:1016F0000FC080E40DC088E60BC080E309C082E221
:1017000007C08AE205C082E303C088E101C080E02F
:101710008ED207C0913011F084E101C080E1BA019E
:10172000A5D3882311F090E001C093E080E5809379
:10173000F10083E091C039DE98C0E3DE96C0CE01AF
:10174000059661E070E040E050E018D58091E80037
:101750008B778093E80082E08093E9008091EC0031
:1017600081608093EC0080914701882311F091E023
:1017700013C08D81813021F0823021F489E303C0D0
:1017800088E301C088E7BE016F5F7F4FC0D2882326
:1017900011F493E001C090E080E58093F10086E0D1
:1017A0008093F1009093F100992309F059C0898149
:1017B0009A81AB81BC819D01442755272093F1007C
:1017C0004BC08091F100833039F1843028F48130AE
:1017D00049F0823029F417C0843019F1853031F195
:1017E00091E029C03091F1002091F1009091F10039
:1017F0008091F10080932A0190932B0120932C017A
:1018000030932D0117C09091F1008091F1008093E9
:101810002E0190932F010EC08091F1008093300132
:1018200009C08091F1008093310104C08091F100E2
:101830008091F10090E08091E8008B778093E80040
:1018400082E08093E9008091EC0081608093EC005D
:1018500080E58093F10087E08093F1009093F100A0
:101860008091E8008E778093E80029960FB6F8946F
:10187000DEBF0FBECDBFCF91DF9108954D99FECF52
:101880004D9BFECF4D99FECF5B9A539A8091C90034
:101890008F7E8093C9008091C90088608093C900C1
:1018A00081E080934801089580914801882309F4DC
:1018B000E5DF80E04D99FECF4D9BFECF4D99FECFE9
:1018C0008F5F8C30B9F7089510924801269A2E98B0
:1018D00080E991E00197F1F78AB188628AB952985C
:1018E00083E090E09093CD008093CC0088E08093DB
:1018F000C9008FE68093CA00D7DFD6CF1092480187
:101900008AB188628AB952985D9A5B9880E991E0C1
:101910000197F1F75B9A8AE68A95F1F783E090E008
:101920009093CD008093CC0088E08093C9008FE62F
:101930008093CA00B9DFB8CF1F93182F8091480158
:10194000882309F49BDF8091C80085FFFCCF80913C
:10195000C80080648093C8001093CE001F91089542
:101960008091C80086FFFCCF8091C800806480937E
:10197000C8008091C900877F8093C9008091C90009
:1019800080618093C90053985B9810924801089534
:1019900080914801882309F0E3DF8091C80087FD2A
:1019A00003C08AB58823C9F78091CE00089580913D
:1019B0004801882309F0D4DF8091C800806C8093AF
:1019C000C8001092C9001092CA008AB1877D8AB9F6
:1019D0008BB1837D8BB926982E980895809148010C
:1019E000882309F0BDDF80EC8093C8001092C90005
:1019F0001092CA008AB1877D8AB98BB1837D8BB979
:101A00000895EF92FF920F931F937B018C01862F15
:101A100093DFBB27A12F902F8F2D8EDFC801AA2720
:101A2000BB278ADFE12EFF24002711278E2D84DFBC
:101A30001F910F91FF90EF90089590E0A0E0B0E02B
:101A400020912A0130912B0140912C0150912D01C0
:101A5000822B932BA42BB52BBC01CD01D2CF8BE6CF
:101A60006BDF8FE0EADF80E267DF92DF982F8AB5D5
:101A7000882319F097FDF7CF81E008957F928F9228
:101A80009F92AF92BF92CF92DF92EF92FF920F930D
:101A90001F93CF93DF93882E962E742EE601D22EBD
:101AA00020FF10C0DCDF882309F440C08CE444DF51
:101AB0008AE0C3DF892D40DF8CE43EDF8BE0BDDFB1
:101AC00081E03ADFA114B104E9F0C9DF882371F1A4
:101AD0008CE432DF8AE0B1DF882D2EDF8BE62CDF4D
:101AE000C801B7018EDF80EA27DF8A2D815024DF0D
:101AF00084E622DF899120DF0894A108B108A114AF
:101B0000B104C1F7D1FE10C0AADF882379F08CE4BC
:101B100013DF8AE092DF872D0FDF8CE40DDFC80131
:101B2000B7016FDF80E008DF81E001C080E0DF9176
:101B3000CF911F910F91FF90EF90DF90CF90BF90CA
:101B4000AF909F908F907F900895CF92DF92EF9209
:101B5000FF920F931F93D82E7A018B01C22E7FDF45
:101B6000882371F08CE4E8DE8AE067DF8D2DE4DE07
:101B70008CE4E2DEC801B70144DF8C2DDDDE81E0BC
:101B80001F910F91FF90EF90DF90CF900895CF922B
:101B9000DF92EF92FF920F931F93CF93DF937B011E
:101BA0008C016A01E9015BDF882369F18CE4C4DE02
:101BB0008AE043DF83E4C0DEC230D105C8F08BE6A3
:101BC000BBDEC801B7011DDF80EAB6DE9E012150F1
:101BD000822FB2DE84E2B0DE06C0DADEF601819347
:101BE0006F01209769F08AB521978823B1F708C063
:101BF0008CE0A2DEC801B70104DFCADEF6018083F3
:101C00008AB5811181E0DF91CF911F910F91FF90F3
:101C1000EF90DF90CF90089580E88EDEB9DE982FA8
:101C20008AB5882319F091FFF7CF81E00895CF920C
:101C3000DF92EF92FF921F93182F6A017B010FDF53
:101C4000882309F45DC0103431F48CE475DE8AE039
:101C5000F4DE80E439C0103309F03DC08CE46CDE62
:101C60008AE0EBDE86E368DE8CE466DE8BE0E5DEB0
:101C700081E062DEF4DE882309F442C08CE45CDE9D
:101C80008AE0DBDE83E358DE8BE656DEC701B60171
:101C9000B8DE80EA51DE80912E0181504DDE84E66F
:101CA0004BDE10E003C080E047DE1F5F212F30E0F5
:101CB00080912E0190912F0128173907A0F38CE411
:101CC0003BDE8AE0BADE80E337DE8CE435DE8BE093
:101CD000B4DE81E00CC08CE42FDE8AE0AEDE812F22
:101CE0002BDE8CE429DEC701B6018BDE80E024DE2A
:101CF00093DF882329F0B3DE882319F081E001C047
:101D000080E01F91FF90EF90DF90CF9008951F9398
:101D1000CF93DF93182FEB01188219821A821B824E
:101D20009EDE882339F18CE407DE8AE086DE812F8F
:101D300003DE8CE401DE8BE080DE81E0FDDD6CDF24
:101D40008823C1F08CDE8823A9F08BE6F5DD84E0E2
:101D500074DE80EAF1DD82E0EFDD84E2EDDD18DEA5
:101D6000888316DE898314DE8A838AB5882319F076
:101D700081E001C080E0DF91CF911F9108954CDF99
:101D800081ECDADD80E0D8DD81E8D6DD01DE882374
:101D9000B9F724CEEF92FF920F931F93DF93CF9367
:101DA000CDB7DEB728970FB6F894DEBF0FBECDBF14
:101DB000A5DD81ECC1DD89E5BFDD82ECBDDD82E022
:101DC000BBDD80EEB9DD8E01085F1F4F7E010894F8
:101DD000E11CF11CD701E2E3F1E088E001900D92F3
:101DE0008150E1F7F8018081A7DD015010400C1708
:101DF0001D0781F711DF28960FB6F894DEBF0FBEDE
:101E0000CDBFCF91DF911F910F91FF90EF9008957B
:101E1000282F8F70806930E020733070220F331FBD
:101E2000822B8ACD0F931F93182F092F88E684DD0C
:101E3000812F82DD89E680DD802F7EDD1F910F916D
:101E4000089520913101822F8F70806130E02073DE
:101E50003070220F331F822B6FDD9ADD982F8AB5E9
:101E6000882319F097FDEDCF81E008951F93CF935C
:101E7000DF93182FEB01E5DF882379F080913001A3
:101E8000C7DF812F59DDCE018160CCDF80E654DDD4
:101E900080E052DDD6DF811181E0DF91CF911F918B
:101EA0000895EF92FF920F931F93CF93DF937C01DE
:101EB0008B01EA01C6DF882321F1C0FF06C0F801CB
:101EC000EC0FFD1F8FEF8083219680913001A0DF02
:101ED0008DE132DDC701A6DF10C0B3DF882389F0B2
:101EE00084E62ADDF801808127DD84E625DDF8011E
:101EF00081810E5F1F4F20DD2297209771F781E0CF
:101F000001C080E0DF91CF911F910F91FF90EF9082
:101F10000895EF92FF920F931F93CF93DF938C015D
:101F20007B01EA018EDF8823B9F08091300170DFF8
:101F300080E002DDC80176DF06C084E2FDDC28DD3A
:101F4000F70181937F01209721F08AB5219788239B
:101F5000A1F78AB5811181E0DF91CF911F910F9197
:101F6000FF90EF90089580E8E7DC12DD982F8AB5A6
:101F7000882319F091FFF7CF81E00895F4DF80EC1A
:101F8000DBDC80E0D9DC80E8D7DC02DD8823B9F730
:101F90000ECDEF92FF920F931F93DF93CF93CDB7A8
:101FA000DEB728970FB6F894DEBF0FBECDBF8CDC2E
:101FB00082ECC2DC82E0C0DC80EEBEDC8E01085F19
:101FC0001F4F7E010894E11CF11CD701EAE3F1E008
:101FD00088E001900D928150E1F7F8018081ACDC3E
:101FE000015010400C171D0781F7BDDF28960FB672
:101FF000F894DEBF0FBECDBFCF91DF911F910F913F
:10200000FF90EF9008959C01409156015091570127
:102010004617570718F4F90190E043C061157105A0
:1020200011F0AB01F8CF8091E8008E778093E80043
:1020300040E050E0F0CF8EB3882309F447C08530EC
:1020400009F446C08091E80083FD44C08091E80017
:1020500082FD36C08091E80080FF23C08091F300AC
:102060009091F200782F60E0292F30E0262B372B5B
:1020700008C084918093F1003196415050402F5F09
:102080003F4F4115510519F02031310590F390E093
:102090002031310509F491E08091E8008E7780933A
:1020A000E8004115510539F6992329F609C08EB388
:1020B000882361F0853061F08091E80083FD0AC0DB
:1020C0008091E80082FFF3CF80E0089582E00895D8
:1020D00083E0089581E00895BF92CF92DF92EF925E
:1020E000FF920F931F93CF93DF938C01EB016A0153
:1020F0001CD1B82E8823B9F521970C0F1D1F2196EE
:10210000C114D10439F0F60180819181C81BD90B2B
:10211000081B190BEE24FF2424C08091E80085FDE4
:1021200016C08091E8008B778093E80058D3C114E3
:10213000D10449F0F601808191818E0D9F1D91831C
:10214000808385E011C0F1D0882359F00DC08091C3
:10215000F100F80180830150104021970894E11CA0
:10216000F11C2097D1F68B2DDF91CF911F910F910C
:10217000FF90EF90DF90CF90BF900895BF92CF92E5
:10218000DF92EF92FF920F931F93CF93DF93182F5D
:10219000092F7B016A01C9D0B82E8823B1F5812FA0
:1021A000902F9C01E901C114D10439F0F60180811E
:1021B0009181E81AF90AC80FD91F00E010E022C087
:1021C0008091E80085FD16C08091E8008B778093B0
:1021D000E80005D3C114D10449F0F6018081918152
:1021E000800F911F9183808385E010C09ED088234B
:1021F00049F00CC08091F10089930894E108F1083E
:102200000F5F1F4FE114F104D9F68B2DDF91CF91B1
:102210001F910F91FF90EF90DF90CF90BF900895A6
:10222000BF92CF92DF92EF92FF920F931F93CF93C3
:10223000DF93182F092F7B016A0177D0B82E8823EE
:10224000B1F5812F902F9C01E901C114D10439F01F
:10225000F60180819181E81AF90AC80FD91F00E0C0
:1022600010E022C08091E80085FD16C08091E80052
:102270008E778093E800B3D2C114D10449F0F601FF
:1022800080819181800F911F9183808385E010C0B0
:102290004CD0882349F00CC089918093F1000894B8
:1022A000E108F1080F5F1F4FE114F104D9F68B2DFF
:1022B000DF91CF911F910F91FF90EF90DF90CF9022
:1022C000BF9008958F708093E9008091EB0081604A
:1022D0008093EB001092ED006093EC004093ED00D2
:1022E0008091EE00881F8827881F089580915001F3
:1022F00088238CF403C08EB38823B1F08091E8006A
:1023000082FFF9CF8091E8008B778093E8000895F1
:102310008EB3882349F08091E80080FFF9CF809147
:10232000E8008E778093E80008954091E400509192
:10233000E50024E68091EC0080FF23C08091E80056
:1023400080FD1DC08EB3882311F482E0089585308E
:1023500011F483E008958091EB0085FF02C081E0D5
:1023600008958091E4009091E5008417950711F39A
:10237000222311F484E008952150AC01DBCF80E0EA
:1023800008958091E80082FFDDCFF9CFEF92FF92B0
:102390000F931F934AD051D008ED10E0F8018081CF
:1023A0008F77808380818068808380818F7D808328
:1023B00019BC1EBA10924E0180EEE82EF12CF701E6
:1023C00080818B7F8083F80180818160808380E0C1
:1023D00060E042E177DFE1EEF0E080818E7F808394
:1023E000E2EEF0E08081816080838081886080837C
:1023F000F70180818E7F8083F801808180618083F6
:102400001F910F91FF90EF900895E8EDF0E080812B
:102410008F7E8083E7EDF0E080818160808384E0BF
:1024200082BF81E080934F01B1CFE8EDF0E0808181
:102430008E7F80831092E20008951092DA0010924D
:10244000E10008951F920F920FB60F9211242F935F
:102450003F934F935F936F937F938F939F93AF932C
:10246000BF93EF93FF938091DA0080FF1DC08091AE
:10247000D80080FF19C08091DA008E7F8093DA0047
:102480008091D90080FF0CC080E189BD82E189BDC7
:1024900009B400FEFDCF81E08EBB0E94660104C03E
:1024A00019BC1EBA0E9468018091E10080FF17C02C
:1024B0008091E20080FF13C08091E2008E7F8093C4
:1024C000E2008091E20080618093E2008091D80078
:1024D00080628093D80019BC85E08EBB7FD180914B
:1024E000E10084FF2EC08091E20084FF2AC080E1D9
:1024F00089BD82E189BD09B400FEFDCF8091D8007D
:102500008F7D8093D8008091E1008F7E8093E100E1
:102510008091E2008F7E8093E2008091E2008160F2
:102520008093E20080914E01882311F084E007C07F
:102530008091E30087FD02C081E001C083E08EBB93
:102540004DD18091E10083FF21C08091E20083FFA3
:102550001DC08091E100877F8093E10082E08EBB07
:1025600010924E018091E1008E7F8093E100809176
:10257000E2008E7F8093E2008091E2008061809390
:10258000E20080E060E042E19DDE28D1FF91EF9122
:10259000BF91AF919F918F917F916F915F914F917B
:1025A0003F912F910F900FBE0F901F9018951F9382
:1025B000DF93CF9300D0CDB7DEB7E0E5F1E08091B7
:1025C000F100819381E0E835F807C9F707D18091E0
:1025D000E80083FFEFC08091500190915101953048
:1025E00009F475C0963040F49130A9F1913070F043
:1025F000933009F0DFC02FC0983009F4ADC0993096
:1026000009F4BCC0963009F0D5C083C0803811F4FD
:1026100090E017C0823809F0CDC0809154018F70CE
:10262000873008F0C7C08093E9008091EB0090E00C
:1026300025E0969587952A95E1F7982F917010924D
:10264000E9008091E800877F8093E8009093F10093
:102650001092F1008CC0882319F0823009F0AAC0D2
:102660008F71823009F0A6C080915201882349F50C
:10267000209154012F70822F8150863008F09AC02B
:102680002093E9008091EB0080FF1BC0933021F480
:102690008091EB00806213C08091EB008061809399
:1026A000EB0081E090E002C0880F991F2A95E2F7C5
:1026B0008093EA001092EA008091EB00886080939A
:1026C000EB001092E9008091E800877F53C08823D7
:1026D00009F070C0109152011F778091E30080785B
:1026E000812B8093E3008091E800877F8093E8004E
:1026F000FDDD8091E80080FFFCCF8091E3008068E1
:102700008093E300112311F482E001C083E08EBBCB
:1027100051C08058823008F04DC0609154017091D2
:1027200055018091520190915301AE014F5F5F4F6F
:102730000E946A01BC01009709F43CC08091E80046
:10274000877F8093E80089819A815DDC8091E80031
:102750008B778093E8002EC0803861F58091E80087
:10276000877F8093E80080914E018093F1008091F3
:10277000E8008E778093E800B9DD1CC08823D1F48F
:10278000909152019230B0F48091E800877F80935D
:10279000E80090934E01AADD80914E01882331F428
:1027A0008091E30087FD02C081E001C084E08EBB20
:1027B0000E947D018091E80083FF0AC08091E800BB
:1027C000877F8093E8008091EB0080628093EB002C
:1027D0000F900F90CF91DF911F91089508951F934F
:1027E0008EB3882371F01091E9008091EC00109273
:1027F000E9008091E80083FF01C0D9DE1F701093CB
:10280000E9001F910895F999FECF92BD81BDF89A14
:10281000992780B50895262FF999FECF92BD81BDE5
:10282000F89A019700B4021639F01FBA20BD0FB60E
:0E283000F894FA9AF99A0FBE0895F894FFCF23
:10283E004156524953505F4D4B3200800100810189
:10284E000090010091010192011894012198030654
:10285E009E0301A10100A4030001C001000120009C
:10286E0033321289AB45CDD888FF1289AB45CDD80E
:02287E0088FFD1
:00000001FF
